{
  "_format": "hh-sol-artifact-1",
  "contractName": "DepAndWith",
  "sourceName": "contracts/DepAndWith.sol",
  "abi": [
    {
      "inputs": [
        {
          "internalType": "address",
          "name": "",
          "type": "address"
        }
      ],
      "name": "balance",
      "outputs": [
        {
          "internalType": "uint256",
          "name": "",
          "type": "uint256"
        }
      ],
      "stateMutability": "view",
      "type": "function"
    },
    {
      "inputs": [],
      "name": "deposit",
      "outputs": [],
      "stateMutability": "payable",
      "type": "function"
    },
    {
      "inputs": [],
      "name": "getContractAddress",
      "outputs": [
        {
          "internalType": "address",
          "name": "",
          "type": "address"
        }
      ],
      "stateMutability": "view",
      "type": "function"
    },
    {
      "inputs": [],
      "name": "getContractBalance",
      "outputs": [
        {
          "internalType": "uint256",
          "name": "",
          "type": "uint256"
        }
      ],
      "stateMutability": "view",
      "type": "function"
    },
    {
      "inputs": [],
      "name": "getMyEthereumBalance",
      "outputs": [
        {
          "internalType": "uint256",
          "name": "myBalance",
          "type": "uint256"
        }
      ],
      "stateMutability": "view",
      "type": "function"
    },
    {
      "inputs": [],
      "name": "getValidatorsCount",
      "outputs": [
        {
          "internalType": "uint256",
          "name": "validators",
          "type": "uint256"
        }
      ],
      "stateMutability": "view",
      "type": "function"
    },
    {
      "inputs": [],
      "name": "minEthDeposit",
      "outputs": [
        {
          "internalType": "uint256",
          "name": "",
          "type": "uint256"
        }
      ],
      "stateMutability": "view",
      "type": "function"
    },
    {
      "inputs": [
        {
          "internalType": "uint256",
          "name": "amount",
          "type": "uint256"
        }
      ],
      "name": "withdraw",
      "outputs": [],
      "stateMutability": "nonpayable",
      "type": "function"
    },
    {
      "inputs": [],
      "name": "withdrawFee",
      "outputs": [
        {
          "internalType": "uint32",
          "name": "",
          "type": "uint32"
        }
      ],
      "stateMutability": "view",
      "type": "function"
    }
  ],
  "bytecode": "0x608060405266038d7ea4c680006001556000600260006101000a81548163ffffffff021916908363ffffffff16021790555034801561003d57600080fd5b506108368061004d6000396000f3fe6080604052600436106100865760003560e01c80636f9fb98a116100595780636f9fb98a146101355780637d90bb9b14610160578063d0e30db01461018b578063e3d670d714610195578063e941fa78146101d257610086565b806303ab712d1461008b57806327498240146100b65780632e1a7d4d146100e157806332a2c5d01461010a575b600080fd5b34801561009757600080fd5b506100a06101fd565b6040516100ad9190610472565b60405180910390f35b3480156100c257600080fd5b506100cb61021c565b6040516100d89190610472565b60405180910390f35b3480156100ed57600080fd5b50610108600480360381019061010391906104be565b610238565b005b34801561011657600080fd5b5061011f6103be565b60405161012c919061052c565b60405180910390f35b34801561014157600080fd5b5061014a6103c6565b6040516101579190610472565b60405180910390f35b34801561016c57600080fd5b506101756103ce565b6040516101829190610472565b60405180910390f35b6101936103d4565b005b3480156101a157600080fd5b506101bc60048036038101906101b79190610573565b61042b565b6040516101c99190610472565b60405180910390f35b3480156101de57600080fd5b506101e7610443565b6040516101f491906105bf565b60405180910390f35b60003373ffffffffffffffffffffffffffffffffffffffff1631905090565b60006801bc16d674ec800000476102339190610638565b905090565b806000803373ffffffffffffffffffffffffffffffffffffffff1673ffffffffffffffffffffffffffffffffffffffff1681526020019081526020016000205410156102b9576040517f08c379a00000000000000000000000000000000000000000000000000000000081526004016102b0906106c6565b60405180910390fd5b806000803373ffffffffffffffffffffffffffffffffffffffff1673ffffffffffffffffffffffffffffffffffffffff168152602001908152602001600020600082825461030791906106e6565b9250508190555060003373ffffffffffffffffffffffffffffffffffffffff16826040516103349061074b565b60006040518083038185875af1925050503d8060008114610371576040519150601f19603f3d011682016040523d82523d6000602084013e610376565b606091505b50509050806103ba576040517f08c379a00000000000000000000000000000000000000000000000000000000081526004016103b1906107ac565b60405180910390fd5b5050565b600030905090565b600047905090565b60015481565b346000803373ffffffffffffffffffffffffffffffffffffffff1673ffffffffffffffffffffffffffffffffffffffff168152602001908152602001600020600082825461042291906107cc565b92505081905550565b60006020528060005260406000206000915090505481565b600260009054906101000a900463ffffffff1681565b6000819050919050565b61046c81610459565b82525050565b60006020820190506104876000830184610463565b92915050565b600080fd5b61049b81610459565b81146104a657600080fd5b50565b6000813590506104b881610492565b92915050565b6000602082840312156104d4576104d361048d565b5b60006104e2848285016104a9565b91505092915050565b600073ffffffffffffffffffffffffffffffffffffffff82169050919050565b6000610516826104eb565b9050919050565b6105268161050b565b82525050565b6000602082019050610541600083018461051d565b92915050565b6105508161050b565b811461055b57600080fd5b50565b60008135905061056d81610547565b92915050565b6000602082840312156105895761058861048d565b5b60006105978482850161055e565b91505092915050565b600063ffffffff82169050919050565b6105b9816105a0565b82525050565b60006020820190506105d460008301846105b0565b92915050565b7f4e487b7100000000000000000000000000000000000000000000000000000000600052601260045260246000fd5b7f4e487b7100000000000000000000000000000000000000000000000000000000600052601160045260246000fd5b600061064382610459565b915061064e83610459565b92508261065e5761065d6105da565b5b828204905092915050565b600082825260208201905092915050565b7f6e6f7420656e6f7567682062616c616e63650000000000000000000000000000600082015250565b60006106b0601283610669565b91506106bb8261067a565b602082019050919050565b600060208201905081810360008301526106df816106a3565b9050919050565b60006106f182610459565b91506106fc83610459565b925082820390508181111561071457610713610609565b5b92915050565b600081905092915050565b50565b600061073560008361071a565b915061074082610725565b600082019050919050565b600061075682610728565b9150819050919050565b7f7478206661696c65640000000000000000000000000000000000000000000000600082015250565b6000610796600983610669565b91506107a182610760565b602082019050919050565b600060208201905081810360008301526107c581610789565b9050919050565b60006107d782610459565b91506107e283610459565b92508282019050808211156107fa576107f9610609565b5b9291505056fea264697066735822122066807fad1b1ea88986c1e2753680d29b2ab1f2721c8770e4fc8b4f9ef38fcb3b64736f6c63430008110033",
  "linkReferences": {},
  "deployedLinkReferences": {}
}